:100000000C9434000C943E000C943E000C943E0082
:100010000C943E000C943E000C943E000C943E0068
:100020000C943E000C943E000C943E000C943E0058
:100030000C943E000C943E000C943E000C943E0048
:100040000C943E000C943E000C943E000C943E0038
:100050000C943E000C943E000C943E000C943E0028
:100060000C943E000C943E0011241FBECFEFD8E04C
:10007000DEBFCDBF0E9440000C9490000C940000A5
:10008000259A249A239A229A2D982C982B982A986C
:1000900061E070E085E090E045B19B01082E01C071
:1000A000220F0A94EAF7342F322B35B94FEF50E77D
:1000B000E2E041505040E040E1F700C0000035B1BF
:1000C0002095232325B901978130910529F72FEF3A
:1000D00040E752E0215040405040E1F700C00000AE
:1000E0002B9A8FEF90E7E2E081509040E040E1F7FB
:1000F00000C000002B982C9A2FEF40E752E02150CF
:1001000040405040E1F700C000002C988FEF90E78E
:10011000E2E081509040E040E1F700C00000BACF3B
:04012000F894FFCF81
:00000001FF
