:100000000C9434000C943E000C943E000C943E0082
:100010000C943E000C943E000C943E000C943E0068
:100020000C943E000C943E000C943E000C943E0058
:100030000C943E000C943E000C943E000C943E0048
:100040000C943E000C943E000C943E000C943E0038
:100050000C943E000C943E000C943E000C943E0028
:100060000C943E000C943E0011241FBECFEFD8E04C
:10007000DEBFCDBF0E9464000C9475000C9400009C
:100080008AE090E032EB45E021E036BD14BC45BD8E
:10009000A89BFECF14BC15BC25BB0197B1F70895F2
:1000A0008BE29FEC909385008093840010928000F7
:1000B00083E080938100B09BFECF1092800010926D
:1000C000810081E086BB0895259A249A10E200E120
:1000D00085B1812785B9CAE0D0E085B1802785B98F
:0E00E0000E9450002197C9F7F3CFF894FFCF8C
:00000001FF
