:100000000C9434000C943E000C943E000C943E0082
:100010000C943E000C943E000C943E000C943E0068
:100020000C943E000C943E000C943E000C943E0058
:100030000C943E000C943E000C943E000C943E0048
:100040000C943E000C943E000C943E000C943E0038
:100050000C943E000C943E000C943E000C943E0028
:100060000C943E000C943E0011241FBECFEFD8E04C
:10007000DEBFCDBF0E9454000C9483000C9400009E
:100080008DEE95E890938500809384001092800017
:1000900083E080938100B09BFECF1092800010928D
:1000A000810081E086BB0895259A249A239A229A9A
:1000B000219A2D982C982B982A982998EE24E3942D
:1000C000F12C2D9AC4E0D0E085B187010C2E01C03F
:1000D000000F0A94EAF7802B85B90E94400085B191
:1000E0000095082305B9219779F70E9440002D98C3
:1000F0002A9A0E9440002A982B9A0E9440002B982E
:0A0100000E944000DECFF894FFCF0C
:00000001FF
