:100000000C9434000C943E000C943E000C943E0082
:100010000C943E000C943E000C943E000C943E0068
:100020000C943E000C943E000C943E000C943E0058
:100030000C943E000C943E000C943E000C943E0048
:100040000C943E000C943E000C943E000C943E0038
:100050000C943E000C943E000C943E000C943E0028
:100060000C943E000C943E0011241FBECFEFD8E04C
:10007000DEBFCDBF0E9450000C9458000C940000CD
:1000800084E690E036E043E021E036BD14BC45BD97
:10009000A89BFECF14BC15BC25BB0197B1F70895F2
:1000A000259AC0E285B18C2785B90E944000FACF1D
:0400B000F894FFCFF2
:00000001FF
